:020000040000FA
:06000000EDEF1FF01200FD
:020006001200E6
:08000800F2A402D05EEF16F035
:100010009EA002D0BBEF16F09EAA02D002EF1DF008
:080020001200D08EF28E1200D6
:080028000900EB4200008E0DFF
:10003000000002000000E94200008C0D00000200F8
:100040000000E8420000930D000001000000CA42D9
:100050000000000F00001E000000E2410000000B45
:100060000000E800000056410000000D00008C0078
:100070000000464100001E0F000010000000C840B4
:100080000000000E00007E00000012400000000191
:060090000000B6000000B4
:0A009600D9CFE6FFE1CFD9FFE65213
:1000A000FE0EDBCFE6FF010EF36EFD0EDB5004E02B
:1000B000D890F336E806FCE1F350E552E71402E08D
:1000C000010E01D0000EDF6EDF5000D0E552E55288
:1000D000E7CFD9FF1200D9CFE6FFE1CFD9FF010E5C
:1000E000F36EFC0EDB5004E0D890F336E806FCE13A
:1000F000F350146EFD0EDBCFE9FFFE0EDBCFEAFFFF
:100100001450EF12E552E7CFD9FF1200D9CFE6FF26
:10011000E1CFD9FF010EF36EFC0EDB5004E0D89066
:10012000F336E806FCE1F350E81C146EFD0EDBCF5D
:10013000E9FFFE0EDBCFEAFF1450EF16E552E7CFE2
:10014000D9FF1200D9CFE6FFE1CFD9FF030EE12698
:10015000DF6A010EDF5C01E31ED1DF28E66EDF50AF
:10016000B50DF3CFE9FFF4CFEAFF000EE926010E4B
:10017000EA22E552E750EF6EDF50B50DF3CFE9FF0D
:10018000F4CFEAFF000EE926010EEA22EE52EF6AF2
:10019000DF50B50DF3CFE9FFF4CFEAFF000EE926FB
:1001A000010EEA22030EE926000EEA22EE6AED6A4B
:1001B000DF50B50DF3CFE9FFF4CFEAFF000EE926DB
:1001C000010EEA22050EE926000EEA22EF6ADF5050
:1001D000B50DF3CFE9FFF4CFEAFF000EE926010EDB
:1001E000EA22060EE926000EEA22EF6ADF50B50D7C
:1001F000F3CFE9FFF4CFEAFF000EE926010EEA2271
:10020000090EE926000EEA22EF6ADF50B50DF3CFA2
:10021000E9FFF4CFEAFF000EE926010EEA220A0EFA
:10022000E926000EEA22EF6ADF50B50DF3CFE9FFB1
:10023000F4CFEAFF000EE926010EEA22070EE926B6
:10024000000EEA22EF6ADF50B50DF3CFE9FFF4CFDD
:10025000EAFF000EE926010EEA220B0EE926000E47
:10026000EA22EF6ADF50B50DF3CFE9FFF4CFEAFFE2
:10027000000EE926010EEA220C0EE926000EEA2203
:10028000EF6ADF50B50DF3CFE9FFF4CFEAFF000EC0
:10029000E926010EEA22080EE926000EEA22EF6A9C
:1002A000DF50B50DF3CFE9FFF4CFEAFF000EE926EA
:1002B000010EEA22020EE926000EEA22EF6ADE5261
:1002C000380EDD6E010EDBCFE6FFE66AE66ADF5030
:1002D000B50DF3CFE9FFF4CFEAFF000EE926010EDA
:1002E000EA227D0EE926000EEA22E9CF14F0EACFD9
:1002F00015F014C0E6FF15C0E6FFC2EC1EF0166E46
:10030000050EE15E1650010EDBCFE6FFE66AE66AF7
:10031000DF50B50DF3CFE9FFF4CFEAFF000EE92679
:10032000010EEA220D0EE926000EEA22E9CF14F0B2
:10033000EACF15F014C0E6FF15C0E6FFC2EC1EF0D0
:10034000166E050EE15E1650010EDBCFE6FFE66A83
:10035000E66ADF50B50DF3CFE9FFF4CFEAFF000EF8
:10036000E926010EEA220D0EE926000EEA22E9CF67
:1003700014F0EACF15F0380E1426000E152214C022
:10038000E6FF15C0E6FFC2EC1EF0166E050EE15E3C
:100390001650DF2ADED6030EE15C02E2E16AE55286
:1003A000E16EE552E7CFD9FF1200D9CFE6FFE1CFEA
:1003B000D9FF070EE126010EF36EFE0EDBCFF4FF30
:1003C000F350F45C1EE2FC0EDBCFE9FFFD0EDBCF49
:1003D000EAFFEF50146E156AD890155004E6800EAF
:1003E000145C000E15580DE2FC0EDBCFE9FFFD0E8C
:1003F000DBCFEAFF020EE926000EEA22EE50ED10F6
:1004000003E1000EFDEF05F0FE0EDB50B50DF3CF5E
:10041000E9FFF4CFEAFF000EE926010EEA22EE52D0
:10042000E9CF14F0EACF15F0050E14C0DBFF060E7D
:1004300015C0DBFFFC0EDBCFE9FFFD0EDBCFEAFFD3
:10044000EECF14F0EECF15F0EECF16F0EECF17F0A2
:10045000EECF18F0EFCF19F0050EDBCFE9FF060E57
:10046000DBCFEAFF14C0EEFF15C0EEFF16C0EEFFB3
:1004700017C0EEFF18C0EEFF19C0EEFFFE0EDB50F6
:10048000B50DF3CFE9FFF4CFEAFF000EE926010E28
:10049000EA22060EE926000EEA22EF50E66EFE0E74
:1004A000DB50B50DF3CFE9FFF4CFEAFF000EE926EC
:1004B000010EEA22070EE926000EEA22E552E75075
:1004C000EF6E380EDF6EDFCFE6FFE66AE66AFE0EFD
:1004D000DB50B50DF3CFE9FFF4CFEAFF000EE926BC
:1004E000010EEA227D0EE926000EEA22E9CF14F081
:1004F000EACF15F014C0E6FF15C0E6FFC2EC1EF00F
:10050000166E050EE15E1650DFCFE6FFE66AE66A7C
:10051000FE0EDB50B50DF3CFE9FFF4CFEAFF000E7E
:10052000E926010EEA220D0EE926000EEA22E9CFA5
:1005300014F0EACF15F014C0E6FF15C0E6FFC2ECD8
:100540001EF0166E050EE15E1650DFCFE6FFE66A7E
:10055000E66AFE0EDB50B50DF3CFE9FFF4CFEAFFFC
:10056000000EE926010EEA220D0EE926000EEA220F
:10057000E9CF14F0EACF15F0380E1426000E15223C
:1005800014C0E6FF15C0E6FFC2EC1EF0166E050EA5
:10059000E15E1650FE0EDB50B50DF3CFE9FFF4CF50
:1005A000EAFF000EE926010EEA22060EE926000EF9
:1005B000EA22EF5001E088D1FE0EDB50B50DF3CFFB
:1005C000E9FFF4CFEAFF000EE926010EEA22080E49
:1005D000E926000EEA22EF6ADF6AFE0EDB50B50D57
:1005E000F3CFE9FFF4CFEAFF000EE926010EEA227D
:1005F000020EE926000EEA22EF50DF5C01E363D130
:10060000FE0EDB50B50DF3CFE9FFF4CFEAFF000E8D
:10061000E926010EEA22080EE926000EEA22EF5032
:10062000EF2A146E156AFE0EDB50B50DF3CFE9FF0D
:10063000F4CFEAFF000EE926010EEA22030EE926B6
:10064000000EEA221450EE24E76E1550EE20EA6EFA
:10065000E7CFE9FFEF50E00FE76E040EE7CFDBFFD7
:10066000040EDBCF14F014340EE2040EDBCF15F0D1
:10067000630EE76E1518E8AE02D0153403D0E750CC
:10068000D880155402E2040EDB6AFE0EDB50B50D75
:10069000F3CFE9FFF4CFEAFF000EE926010EEA22CC
:1006A000080EE926000EEA22EFCF14F0FE0EDB5012
:1006B000B50DF3CFE9FFF4CFEAFF000EE926010EF6
:1006C000EA22050EE926000EEA22EF50145C10E340
:1006D000FE0EDB50B50DF3CFE9FFF4CFEAFF000EBD
:1006E000E926010EEA22080EE926000EEA22EF6A48
:1006F000010EDB6A070EF36E010EDBCFF4FFF35041
:10070000F45C01E3DED0040EDBCF18F0196A18BEEA
:100710001968030ED89018361936E806FBE1800EEA
:100720001826300E1922010EDB500F011824F66E28
:10073000000E1920F76E0800F550E66EFE0EDB5035
:10074000B50DF3CFE9FFF4CFEAFF000EE926010E65
:10075000EA227D0EE926000EEA22E9CF16F0EACF62
:1007600017F0010EDB50080D1650F324146E1750CD
:10077000F420156EDF500F011424E96E000E1520D1
:10078000EA6EE552E750EF6EFE0EDB50B50DF3CF8B
:10079000E9FFF4CFEAFF000EE926010EEA227D0E02
:1007A000E926000EEA22E9CF1AF0EACF1BF0010E8B
:1007B000DB50080D1A50F324186E1B50F420196EEC
:1007C000DF500F011824E96E000E1920EA6EEF5079
:1007D000E66EFE0EDB50B50DF3CFE9FFF4CFEAFF76
:1007E000000EE926010EEA220D0EE926000EEA228D
:1007F000E9CF16F0EACF17F0010EDB50080D1650C6
:10080000F324146E1750F420156EDF500F011424DA
:10081000E96E000E1520EA6EE552E750EF6EFE0E0F
:10082000DB50B50DF3CFE9FFF4CFEAFF000EE92668
:10083000010EEA227D0EE926000EEA22E9CF1AF027
:10084000EACF1BF0010EDB50080D1A50F324186E8E
:100850001B50F420196EDF500F011824E96E000EB2
:100860001920EA6EEF50E66EFE0EDB50B50DF3CFA9
:10087000E9FFF4CFEAFF000EE926010EEA220D0E91
:10088000E926000EEA22E9CF16F0EACF17F0380E7B
:100890001626000E1722010EDB50080D1650F32409
:1008A000146E1750F420156EDF500F011424E96EFA
:1008B000000E1520EA6EE552E750EF6E010EDB2ABE
:1008C00019D7DF2A8AD687D1FE0EDB50B50DF3CFBC
:1008D000E9FFF4CFEAFF000EE926010EEA22080E36
:1008E000E926000EEA22EF6ADF6AFE0EDB50B50D44
:1008F000F3CFE9FFF4CFEAFF000EE926010EEA226A
:10090000020EE926000EEA22EF50DF5C01E363D11C
:10091000FE0EDB50B50DF3CFE9FFF4CFEAFF000E7A
:10092000E926010EEA22080EE926000EEA22EF501F
:10093000EF2A146E156AFE0EDB50B50DF3CFE9FFFA
:10094000F4CFEAFF000EE926010EEA22030EE926A3
:10095000000EEA221450EE24E76E1550EE20EA6EE7
:10096000E7CFE9FFEF50E00FE76E040EE7CFDBFFC4
:10097000040EDBCF14F014340EE2040EDBCF15F0BE
:10098000630EE76E1518E8AE02D0153403D0E750B9
:10099000D880155402E2040EDB6AFE0EDB50B50D62
:1009A000F3CFE9FFF4CFEAFF000EE926010EEA22B9
:1009B000080EE926000EEA22EFCF14F0FE0EDB50FF
:1009C000B50DF3CFE9FFF4CFEAFF000EE926010EE3
:1009D000EA22050EE926000EEA22EF50145C10E32D
:1009E000FE0EDB50B50DF3CFE9FFF4CFEAFF000EAA
:1009F000E926010EEA22080EE926000EEA22EF6A35
:100A0000010EDB6A070EF36E010EDBCFF4FFF3502D
:100A1000F45C01E3DED0040EDBCF18F0196A18BED7
:100A20001968030ED89018361936E806FBE1800ED7
:100A30001826300E1922010EDB500F011824F66E15
:100A4000000E1920F76E0800F550E66EFE0EDB5022
:100A5000B50DF3CFE9FFF4CFEAFF000EE926010E52
:100A6000EA227D0EE926000EEA22E9CF16F0EACF4F
:100A700017F0010EDB50080D1650F324146E1750BA
:100A8000F420156EDF500F011424E96E000E1520BE
:100A9000EA6EE552E750EF6EFE0EDB50B50DF3CF78
:100AA000E9FFF4CFEAFF000EE926010EEA227D0EEF
:100AB000E926000EEA22E9CF1AF0EACF1BF0010E78
:100AC000DB50080D1A50F324186E1B50F420196ED9
:100AD000DF500F011824E96E000E1920EA6EEF5066
:100AE000E66EFE0EDB50B50DF3CFE9FFF4CFEAFF63
:100AF000000EE926010EEA220D0EE926000EEA227A
:100B0000E9CF16F0EACF17F0010EDB50080D1650B2
:100B1000F324146E1750F420156EDF500F011424C7
:100B2000E96E000E1520EA6EE552E750EF6EFE0EFC
:100B3000DB50B50DF3CFE9FFF4CFEAFF000EE92655
:100B4000010EEA227D0EE926000EEA22E9CF1AF014
:100B5000EACF1BF0010EDB50080D1A50F324186E7B
:100B60001B50F420196EDF500F011824E96E000E9F
:100B70001920EA6EEF50E66EFE0EDB50B50DF3CF96
:100B8000E9FFF4CFEAFF000EE926010EEA220D0E7E
:100B9000E926000EEA22E9CF16F0EACF17F0380E68
:100BA0001626000E1722010EDB50080D1650F324F6
:100BB000146E1750F420156EDF500F011424E96EE7
:100BC000000E1520EA6EE552E750EF6E010EDB2AAB
:100BD00019D7DF2A8AD6FE0EDB50B50DF3CFE9FF19
:100BE000F4CFEAFF000EE926010EEA22080EE926FC
:100BF000000EEA22EF6A010E00D0146E070EE15CCF
:100C000002E2E16AE552E16E1450E552E7CFD9FF06
:100C10001200D9CFE6FFE1CFD9FFFE0EDB50B50DB4
:100C2000F3CFE9FFF4CFEAFF000EE926010EEA2236
:100C3000060EE926000EEA22FD0EDBCFEFFFFE0EC8
:100C4000DB50B50DF3CFE9FFF4CFEAFF000EE92644
:100C5000010EEA22070EE926000EEA22FD0EDBCF86
:100C6000EFFFE552E7CFD9FF1200D9CFE6FFE1CF82
:100C7000D9FF020EE126FD0EDB50146E156AFE0E42
:100C8000DB50B50DF3CFE9FFF4CFEAFF000EE92604
:100C9000010EEA22030EE926000EEA221450EE2489
:100CA000E76E1550EE20EA6EE7CFE9FFEF50E00F58
:100CB000E76E010EE7CFDBFFDF6A070EDF5C01E3C3
:100CC000B5D0010EDB50080DF3CF18F0F4CF19F0BA
:100CD000800E1826300E1922DF500F011824F66EF0
:100CE000000E1920F76E0800F550E66EFE0EDB5080
:100CF000B50DF3CFE9FFF4CFEAFF000EE926010EB0
:100D0000EA227D0EE926000EEA22E9CF16F0EACFAC
:100D100017F0DF50080D1650F324146E1750F4200E
:100D2000156EFD0EDB500F011424E96E000E152028
:100D3000EA6EE552E750EF6EDF50080DF3CF18F082
:100D4000F4CF19F07D0E1826010E1922FD0EDB508E
:100D50000F011824E96E000E1920EA6EEF50E66EBE
:100D6000FE0EDB50B50DF3CFE9FFF4CFEAFF000E26
:100D7000E926010EEA220D0EE926000EEA22E9CF4D
:100D800016F0EACF17F0DF50080D1650F324146E5A
:100D90001750F420156EFD0EDB500F011424E96E80
:100DA000000E1520EA6EE552E750EF6EDF50080D99
:100DB000F3CF18F0F4CF19F07D0E1826010E19228A
:100DC000FD0EDB500F011824E96E000E1920EA6EAB
:100DD000EF50E66EFE0EDB50B50DF3CFE9FFF4CF1A
:100DE000EAFF000EE926010EEA220D0EE926000EAA
:100DF000EA22E9CF16F0EACF17F0380E1626000ED9
:100E00001722DF50080D1650F324146E1750F420EB
:100E1000156EFD0EDB500F011424E96E000E152037
:100E2000EA6EE552E750EF6EDF2A47D7020EE15C2B
:100E300002E2E16AE552E16EE552E7CFD9FF120026
:100E4000D9CFE6FFE1CFD9FFE652FE0EDB50B50D5C
:100E5000F3CFE9FFF4CFEAFF000EE926010EEA2204
:100E6000EE52EF6AFE0EDB50B50DF3CFE9FFF4CF83
:100E7000EAFF000EE926010EEA22030EE926000E23
:100E8000EA22EE6AED6AFE0EDB50B50DF3CFE9FF04
:100E9000F4CFEAFF000EE926010EEA22050EE9264C
:100EA000000EEA22EF6AFE0EDB50B50DF3CFE9FF2C
:100EB000F4CFEAFF000EE926010EEA22060EE9262B
:100EC000000EEA22EF6AFE0EDB50B50DF3CFE9FF0C
:100ED000F4CFEAFF000EE926010EEA22090EE92608
:100EE000000EEA22EF6AFE0EDB50B50DF3CFE9FFEC
:100EF000F4CFEAFF000EE926010EEA220A0EE926E7
:100F0000000EEA22EF6AFE0EDB50B50DF3CFE9FFCB
:100F1000F4CFEAFF000EE926010EEA22070EE926C9
:100F2000000EEA22EF6AFE0EDB50B50DF3CFE9FFAB
:100F3000F4CFEAFF000EE926010EEA220B0EE926A5
:100F4000000EEA22EF6AFE0EDB50B50DF3CFE9FF8B
:100F5000F4CFEAFF000EE926010EEA220C0EE92684
:100F6000000EEA22EF6AFE0EDB50B50DF3CFE9FF6B
:100F7000F4CFEAFF000EE926010EEA22080EE92668
:100F8000000EEA22EF6AFE0EDB50B50DF3CFE9FF4B
:100F9000F4CFEAFF000EE926010EEA22020EE9264E
:100FA000000EEA22EF6A380EDF6EDFCFE6FFE66A58
:100FB000E66AFE0EDB50B50DF3CFE9FFF4CFEAFF92
:100FC000000EE926010EEA227D0EE926000EEA2235
:100FD000E9CF14F0EACF15F014C0E6FF15C0E6FF24
:100FE000C2EC1EF0166E050EE15E1650DFCFE6FF76
:100FF000E66AE66AFE0EDB50B50DF3CFE9FFF4CFEB
:10100000EAFF000EE926010EEA220D0EE926000E87
:10101000EA22E9CF14F0EACF15F014C0E6FF15C0BC
:10102000E6FFC2EC1EF0166E050EE15E1650DFCF35
:10103000E6FFE66AE66AFE0EDB50B50DF3CFE9FF88
:10104000F4CFEAFF000EE926010EEA220D0EE92692
:10105000000EEA22E9CF14F0EACF15F0380E14267C
:10106000000E152214C0E6FF15C0E6FFC2EC1EF00C
:10107000166E050EE15E1650E552E552E7CFD9FF38
:101080001200D9CFE6FFE1CFD9FF050EE126DF6AD6
:10109000010EDF5C01E3BED3DF50B50DF3CFE9FFF6
:1010A000F4CFEAFF000EE926010EEA22060EE92639
:1010B000000EEA22EF5021E0DF50B50DF3CFE9FF3B
:1010C000F4CFEAFF000EE926010EEA22070EE92618
:1010D000000EEA22EF06DF50B50DF3CFE9FFF4CFA3
:1010E000EAFF000EE926010EEA22070EE926000EAD
:1010F000EA22EF50000801E28BD3DF50B50DF3CFA9
:10110000E9FFF4CFEAFF000EE926010EEA22060EFF
:10111000E926000EEA22EF50E66EDF50B50DF3CF60
:10112000E9FFF4CFEAFF000EE926010EEA22070EDE
:10113000E926000EEA22E552E750EF6EF29ADF5000
:10114000B50DF3CFE9FFF4CFEAFF000EE926010E5B
:10115000EA22090EE926000EEA22EF5025E1DF50CF
:10116000B50DF3CFE9FFF4CFEAFF000EE926010E3B
:10117000EA220C0EE926000EEA22EF5002E1010EEF
:1011800001D0000EE66EDF50B50DF3CFE9FFF4CFCE
:10119000EAFF000EE926010EEA220B0EE926000EF8
:1011A000EA22E552E750EF6EDF50B50DF3CFE9FFCD
:1011B000F4CFEAFF000EE926010EEA22090EE92625
:1011C000000EEA22EF0402E1F28A22D3F28ADF5013
:1011D000B50DF3CFE9FFF4CFEAFF000EE926010ECB
:1011E000EA22060EE926000EEA22EF5001E1FED2C5
:1011F000010EDB6A070EF36E010EDBCFF4FFF35036
:10120000F45C01E383D2010EF36E020EF3CFDBFF39
:10121000DF50B50DF3CFE9FFF4CFEAFF000EE9266A
:10122000010EEA22020EE926000EEA22EF50F36ECA
:10123000020EDBCFF4FFF350F45C01E313D1DF5077
:10124000B50DF3CFE9FFF4CFEAFF000EE926010E5A
:10125000EA227D0EE926000EEA22E9CF16F0EACF57
:1012600017F0010EDB50080D1650F324146E1750C2
:10127000F420156E020EDB040F011424E96E000E3B
:101280001520EA6EEF9EEF46070EE66EDF50B50DB5
:10129000F3CFE9FFF4CFEAFF000EE926010EEA22C0
:1012A0007D0EE926000EEA22E9CF16F0EACF17F00C
:1012B000010EDB50080D1650F324146E1750F42065
:1012C000156E020EDB500F011424E96E000E15207E
:1012D000EA6EEF50E66E4BEC00F0E552E552010885
:1012E0002FE1030EE66EDF50B50DF3CFE9FFF4CF2B
:1012F000EAFF000EE926010EEA227D0EE926000E25
:10130000EA22E9CF18F0EACF19F0010EDB50080D00
:101310001850F324166E1950F420176E020EDB04D9
:1013200000011624146E000E1720156E14C0E6FF7F
:1013300015C0E6FF6BEC00F0E552E552E5522ED009
:10134000030EE66EDF50B50DF3CFE9FFF4CFEAFFF1
:10135000000EE926010EEA227D0EE926000EEA22A1
:10136000E9CF18F0EACF19F0010EDB50080D185044
:10137000F324166E1950F420176E020EDB040001E0
:101380001624146E000E1720156E14C0E6FF15C04B
:10139000E6FF86EC00F0E552E552E552DF50B50D70
:1013A000F3CFE9FFF4CFEAFF000EE926010EEA22AF
:1013B0007D0EE926000EEA22E9CF1CF0EACF1DF0EF
:1013C000010EDB50080D1C50F3241A6E1D50F42042
:1013D0001B6E020EDB040F011A24E96E000E1B20A7
:1013E000EA6EEF50E66EDF50B50DF3CFE9FFF4CFB4
:1013F000EAFF000EE926010EEA220D0EE926000E94
:10140000EA22E9CF18F0EACF19F0DF50B50DF3CF9B
:10141000E9FFF4CFEAFF000EE926010EEA220B0EE7
:10142000E926000EEA22EF50380D1850F324166E0C
:101430001950F420176E010EDB50080D1650F324DE
:10144000146E1750F420156E020EDB040F011424E5
:10145000E96E000E1520EA6EE552E750EF6E020EBF
:10146000DB2AD6D6DF50B50DF3CFE9FFF4CFEAFF84
:10147000000EE926010EEA227D0EE926000EEA2280
:10148000E9CF16F0EACF17F0010EDB50080D165029
:10149000F324146E1750F420156E020EDB040F01B6
:1014A0001424E96E000E1520EA6EEF9EEF46DF5021
:1014B000B50DF3CFE9FFF4CFEAFF000EE926010EE8
:1014C000EA22080EE926000EEA22EF50146E156A91
:1014D000DF50B50DF3CFE9FFF4CFEAFF000EE926A8
:1014E000010EEA22030EE926000EEA221450EE2431
:1014F000E76E1550EE20EA6EE7CFE9FFEF50E00F00
:10150000E76E030EE7CFDBFF000EF36E030EDBCFBB
:10151000F4FFF350F45C04E3030EDB50630802E2D3
:10152000030EDB6A030EDB50080DF3CF14F0F4CF8B
:1015300015F0800E1426300E1522010EDB500F011F
:101540001424F66E000E1520F76E0800040EF5CF79
:10155000DBFF070E146EDF50B50DF3CFE9FFF4CFBC
:10156000EAFF000EE926010EEA220A0EE926000E25
:10157000EA22EF50145CE66E040EDBCFE6FF4BEC84
:1015800000F0E552E55201082FE1030EE66EDF5050
:10159000B50DF3CFE9FFF4CFEAFF000EE926010E07
:1015A000EA227D0EE926000EEA22E9CF18F0EACF02
:1015B00019F0010EDB50080D1850F324166E195067
:1015C000F420176E020EDB0400011624146E000EC8
:1015D0001720156E14C0E6FF15C0E6FF6BEC00F097
:1015E000E552E552E5522ED0030EE66EDF50B50D02
:1015F000F3CFE9FFF4CFEAFF000EE926010EEA225D
:101600007D0EE926000EEA22E9CF18F0EACF19F0A4
:10161000010EDB50080D1850F324166E1950F420FB
:10162000176E020EDB0400011624146E000E172044
:10163000156E14C0E6FF15C0E6FF86EC00F0E5521B
:10164000E552E552DF50B50DF3CFE9FFF4CFEAFFE5
:10165000000EE926010EEA227D0EE926000EEA229E
:10166000E9CF1CF0EACF1DF0010EDB50080D1C5035
:10167000F3241A6E1D50F4201B6E020EDB040F01C2
:101680001A24E96E000E1B20EA6EEF50E66EDF5062
:10169000B50DF3CFE9FFF4CFEAFF000EE926010E06
:1016A000EA220D0EE926000EEA22E9CF18F0EACF71
:1016B00019F0DF50B50DF3CFE9FFF4CFEAFF000ECC
:1016C000E926010EEA220B0EE926000EEA22EF506F
:1016D000380D1850F324166E1950F420176E010EB1
:1016E000DB50080D1650F324146E1750F420156EBD
:1016F000020EDB040F011424E96E000E1520EA6EC1
:10170000E552E750EF6E010EDB2A74D5DF50B50DC0
:10171000F3CFE9FFF4CFEAFF000EE926010EEA223B
:101720000A0EE926000EEA22EF2ADF50B50DF3CFAC
:10173000E9FFF4CFEAFF000EE926010EEA220A0EC5
:10174000E926000EEA22EFCF14F0050E145C4EE3FA
:10175000DF50B50DF3CFE9FFF4CFEAFF000EE92625
:10176000010EEA22080EE926000EEA22EF2ADF50D7
:10177000B50DF3CFE9FFF4CFEAFF000EE926010E25
:10178000EA22080EE926000EEA22EFCF14F0DF501D
:10179000B50DF3CFE9FFF4CFEAFF000EE926010E05
:1017A000EA22050EE926000EEA22EF50145C0FE350
:1017B000DF50B50DF3CFE9FFF4CFEAFF000EE926C5
:1017C000010EEA22080EE926000EEA22EF6ADF5037
:1017D000B50DF3CFE9FFF4CFEAFF000EE926010EC5
:1017E000EA220A0EE926000EEA22EF6AF29ADF5098
:1017F000B50DF3CFE9FFF4CFEAFF000EE926010EA5
:10180000EA22090EE926000EEA22010EEF6EF28AA4
:10181000DF2A3ED4050EE15C02E2E16AE552E16EA8
:10182000E552E7CFD9FF1200D9CFE6FFE1CFD9FFCC
:10183000040EE1268092809480968098809A84900D
:1018400084928090020EDB6A010EF36E020EDBCFF3
:10185000F4FFF350F45C01E390D0030EDB6A020E58
:10186000DB50B50DF3CFE9FFF4CFEAFF000EE92618
:10187000010EEA22020EE926000EEA22EF50F36E74
:10188000030EDBCFF4FFF350F45C74E2020EDB5086
:10189000B50DF3CFE9FFF4CFEAFF000EE926010E04
:1018A000EA220D0EE926000EEA22E9CF18F0EACF6F
:1018B00019F0020EDB50B50DF3CFE9FFF4CFEAFFCC
:1018C000000EE926010EEA220C0EE926000EEA229D
:1018D000EF50380D1850F324166E1950F420176E7F
:1018E0000101B551080D1650F324146E1750F42061
:1018F000156E030EDB500F011424E96E000E152047
:10190000EA6EEFCFDFFF030EDBCFE6FF020EDB5008
:10191000B50DF3CFE9FFF4CFEAFF000EE926010E83
:10192000EA22EE52EF50E552E724E76E010EE7CFD0
:10193000DBFF400EF36E010EDBCFF4FFF350F45CDF
:101940000AE3800E146E010EDBCFE7FF1450E7268A
:10195000010EE7CFDBFF010EDB50816EDF1C836ED3
:101960008494040EE66EFBEC1FF0E5528484030EB3
:10197000DB2A75D7020EDB2A67D70101B551070AAA
:101980004EE0010A43E0030A38E0010A2DE0070AAD
:1019900022E0010A17E0030A0CE0010A01E048D046
:1019A0008082809480968098809A8490849280909F
:1019B00040D08092808480968098809A849084928F
:1019C000809037D08092809480868098809A84908E
:1019D000849280902ED08092809480968088809A85
:1019E00084908492809025D0809280948096809874
:1019F000808A8490849280901CD08092809480967B
:101A00008098809A84808492809013D08092809471
:101A100080968098809A8490848280900AD0809268
:101A2000809480968098809A84908492808001D05F
:101A300000D00101B52B0101B551070857E20101A2
:101A4000B56B020EDB6A010EF36E020EDBCFF4FF04
:101A5000F350F45C4BE2020EDB50B50DF3CFE9FF1F
:101A6000F4CFEAFF000EE926010EEA22090EE9266C
:101A7000000EEA22EF0437E1020EDB50B50DF3CF82
:101A8000E9FFF4CFEAFF000EE926010EEA220C0E70
:101A9000E926000EEA22EF5002E1010E01D0000E0D
:101AA000E66E020EDB50B50DF3CFE9FFF4CFEAFF8F
:101AB000000EE926010EEA220C0EE926000EEA22AB
:101AC000E552E750EF6E020EDB50B50DF3CFE9FFA4
:101AD000F4CFEAFF000EE926010EEA22090EE926FC
:101AE000000EEA22EF6A020EDB2AADD7040EE15C9B
:101AF00002E2E16AE552E16EE552E7CFD9FF12005A
:101B0000D9CFE6FFE1CFD9FF400EF36EFE0EDBCF5B
:101B1000F4FFF350F45C0AE3800E146EFE0EDBCF8C
:101B2000E7FF1450E726FE0EE7CFDBFF8484FE0EAE
:101B3000DB50816EFD0EDB50836E8494280EE66EC2
:101B4000FBEC1FF0E5528484E552E7CFD9FF120089
:101B5000DACFE4FFE2CFDAFFE9CFE4FFEACFE4FF38
:101B6000F6CFE4FFF7CFE4FFF5CFE4FFF3CFE4FFD8
:101B7000F4CFE4FFFACFE4FF00EE00F0140EE80427
:101B800003E3EECFE4FFFBD700EE14F00A0EE80407
:101B900003E3EECFE4FFFBD7E652D9CFE6FFE1CF78
:101BA000D9FFE6520EEC1FF0DF6E0E01BD51BD2BCA
:101BB000EA6AC00FE96E0E0EEA22DFCFEFFF3C0E9D
:101BC0000E01BD5D02E30E01BD6B0E01BF2BA49A99
:101BD000E552E552E7CFD9FFE55200EE1DF00A0EBF
:101BE000E80403E3E5CFEDFFFBD700EE13F0140E9E
:101BF000E80403E3E5CFEDFFFBD7E5CFFAFFE5CF40
:101C0000F4FFE5CFF3FFE5CFF5FFE5CFF7FFE5CF35
:101C1000F6FFE5CFEAFFE5CFE9FFE5CFDAFF1100F8
:101C2000DACFE4FFE2CFDAFFE9CFE4FFEACFE4FF67
:101C3000E652D9CFE6FFE1CFD9FFE6520E010251BD
:101C400004E1ACA2FED7AC9A21D00E010151EA6AA0
:101C5000030FE96E0E0EEA22EFCFDFFFDF50AD6E0D
:101C60000E01012B3C0E0E01015D02E30E01016B22
:101C7000000E0E01E76E0219E8AE02D0023503D065
:101C8000E750D880025502E20E010207E552E55204
:101C9000E7CFD9FFE552E5CFEAFFE5CFE9FFE5CF92
:101CA000DAFF1100DACFE4FFE2CFDAFFE9CFE4FF99
:101CB000EACFE4FFE652D9CFE6FFE1CFD9FFE65203
:101CC0000E01805104E172A2FED7729A21D00E015A
:101CD0007F51EA6A810FE96E0E0EEA22EFCFDFFF35
:101CE000DF50736E0E017F2B3C0E0E017F5D02E311
:101CF0000E017F6B000E0E01E76E8019E8AE02D078
:101D0000803503D0E750D880805502E20E0180076D
:101D1000E552E552E7CFD9FFE552E5CFEAFFE5CF3F
:101D2000E9FFE5CFDAFF1100D9CFE6FFE1CFD9FF18
:101D3000E6527C0EDF6ED950FB0FE96EFF0EDA2003
:101D4000EA6EEE2A000EEE22000EEE22000EEE22C9
:101D5000D950FB0FE96EFF0EDA20EA6E040EE76E33
:101D6000D890EF36010EEB36020EEB36030EEB3653
:101D7000E706F6E1146A240E156EF40E166E176A65
:101D800014C006F015C007F016C008F017C009F01F
:101D9000FB0EDBCF0BF0FC0EDBCF0CF0FD0EDBCF30
:101DA0000DF0FE0EDBCF0EF0EAEC1EF0FB0E06C0CF
:101DB000DBFFFC0E07C0DBFFFD0E08C0DBFFFE0EE5
:101DC00009C0DBFFFB0EDBCFE6FFFC0EDBCFE6FF3F
:101DD000DFCFE6FF31EC1EF0E552E552E552AC8A6A
:101DE000AC9E9D8A9F88E552E552E7CFD9FF12004D
:101DF000D9CFE6FFE1CFD9FFE6527C0EDF6ED95096
:101E0000FB0FE96EFF0EDA20EA6EEE2A000EEE22DC
:101E1000000EEE22000EEE22D950FB0FE96EFF0EEF
:101E2000DA20EA6E040EE76ED890EF36010EEB363C
:101E3000020EEB36030EEB36E706F6E1146A240ECB
:101E4000156EF40E166E176A14C006F015C007F072
:101E500016C008F017C009F0FB0EDBCF0BF0FC0E2C
:101E6000DBCF0CF0FD0EDBCF0DF0FE0EDBCF0EF066
:101E7000EAEC1EF0FB0E06C0DBFFFC0E07C0DBFF2A
:101E8000FD0E08C0DBFFFE0E09C0DBFFFB0EDBCF43
:101E9000E6FFFC0EDBCFE6FFDFCFE6FFF5EC1DF043
:101EA000E552E552E552D08E718E728A729EA38AF7
:101EB000A58AE552E552E7CFD9FF1200D9CFE6FF58
:101EC000E1CFD9FFACA2FED70E010051002BEA6A88
:101ED000030FE96E0E0EEA22FE0EDBCFEFFF0E01BE
:101EE000022B3C0E0E01005D02E30E01006B010EA1
:101EF00000D0E552E7CFD9FF1200D9CFE6FFE1CFFE
:101F0000D9FF72A2FED70E017E517E2BEA6A810FA5
:101F1000E96E0E0EEA22FE0EDBCFEFFF0E01802BE4
:101F20003C0E0E017E5D02E30E017E6B010E00D0C1
:101F3000E552E7CFD9FF1200D9CFE6FFE1CFD9FFB5
:101F4000060EE126010EF36E020EF3CFDBFF030E49
:101F5000DB6A020EDBCF14F0DB06030EDBCF15F0DD
:101F600001E2DB061450151006E0040EE66EBEEC2E
:101F70001FF0E552EED7000E0E01E76E0219E8AE33
:101F800002D0023503D0E750D880025528E20E0176
:101F90000151EA6A030FE96E0E0EEA22010EEFCF3D
:101FA000DBFFACA2FED7010EDB50AD6EACA2FED7BC
:101FB0000E01012B3C0E0E01015D02E30E01016BCF
:101FC000000E0E01E76E0219E8AE02D0023503D012
:101FD000E750D880025502E20E010207CCD7010E6D
:101FE000F36E040EF3CFDBFF050EDB6A040EDBCFCE
:101FF00014F0DB06050EDBCF15F001E2DB06145012
:10200000151006E0040EE66EBEEC1FF0E552EED7AA
:10201000146E060EE15C02E2E16AE552E16E1450D4
:10202000E552E7CFD9FF1200D9CFE6FFE1CFD9FFC4
:10203000060EE126010EF36E020EF3CFDBFF030E58
:10204000DB6A020EDBCF14F0DB06030EDBCF15F0EC
:1020500001E2DB061450151006E0040EE66EBEEC3D
:102060001FF0E552EED7000E0E01E76E8019E8AEC4
:1020700002D0803503D0E750D880805528E20E0189
:102080007F51EA6A810FE96E0E0EEA22010EEFCF50
:10209000DBFF72A2FED7010EDB50736E72A2FED779
:1020A0000E017F2B3C0E0E017F5D02E30E017F6B64
:1020B000000E0E01E76E8019E8AE02D0803503D025
:1020C000E750D880805502E20E018007CCD7010E80
:1020D000F36E040EF3CFDBFF050EDB6A040EDBCFDD
:1020E00014F0DB06050EDBCF15F001E2DB06145021
:1020F000151006E0040EE66EBEEC1FF0E552EED7BA
:10210000146E060EE15C02E2E16AE552E16E1450E3
:10211000E552E7CFD9FF1200D9CFE6FFE1CFD9FFD3
:10212000E652DF6AA39A000E0E01E76EBF19E8AE11
:1021300002D0BF3503D0E750D880BF5502E2010E70
:10214000DF6EA38ADF5000D0E552E552E7CFD9FF1A
:102150001200D9CFE6FFE1CFD9FFE652DF6A9D9AA0
:10216000000E0E01E76E4119E8AE02D0413503D0F2
:10217000E750D880415502E2010EDF6E9D8ADF50A4
:1021800000D0E552E552E7CFD9FF1200D9CFE6FFE4
:10219000E1CFD9FFE6529D9A0E014051402BEA6AE9
:1021A000420FE96E0E0EEA22EFCFDFFF3C0E0E016A
:1021B000405D02E30E01406B000E0E01E76E411917
:1021C000E8AE02D0413503D0E750D880415502E255
:1021D0000E0141079D8ADF5000D0E552E552E7CF5E
:1021E000D9FF1200D9CFE6FFE1CFD9FFE6529D9A81
:1021F0000E01BE51BE2BEA6AC00FE96E0E0EEA2236
:10220000EFCFDFFF3C0E0E01BE5D02E30E01BE6BA1
:10221000000E0E01E76EBF19E8AE02D0BF3503D045
:10222000E750D880BF5502E20E01BF079D8ADF50FC
:0C22300000D0E552E552E7CFD9FF1200C4
:04223C00D9CFE6FF11
:10224000E1CFD9FF070EE126DF6A010EDB6A310E0E
:10225000F36E020EF3CFDBFF030EDB6A040EDB6AC4
:10226000050EDB6A060EDB6ADF6A0A0EDF5C63E2DC
:10227000010EDB6ADF50200D030EF3CFDBFF040EEF
:10228000F4CFDBFF010EDB50E76E030EDBCF14F063
:10229000040EDBCF15F0E7501426000E152214C0F3
:1022A000E6FF15C0E6FF6AEC1EF0E552E552E76E68
:1022B000050EE7CFDBFF06EC20F0050EDB5001E159
:1022C00038D0050EDB5035E0010EDB50E76E030E13
:1022D000DBCF16F0040EDBCF17F0E7501626000E0A
:1022E000172216C0E6FF17C0E6FF6AEC1EF0E552A3
:1022F000E552E66EDF50140DF3CF14F0F4CF15F075
:10230000170E14260B0E1522010EDBCFF3FFDB2A6E
:10231000F3500F011424E96E000E1520EA6EE55209
:10232000E750EF6EE76E050EE7CFDBFF06EC20F01F
:10233000C8D7DF2A9AD7400EF36E030EF3CFDBFF28
:10234000010EF36E040EF3CFDBFF030EDBCFE6FFCF
:10235000040EDBCFE6FF6AEC1EF0E552E552E76EB5
:10236000060EE7CFDBFF06EC20F0060EDBCFE0FB2E
:10237000E0CBDFFB060EDBCFE1FB060EDB500A08ED
:1023800038E3E66A20EC07F0E5520B01E26B0B0143
:10239000080EE36F060EDB50140DF3CF14F0F4CFEC
:1023A00015F0170E14260B0E152214C0E6FF15C0EB
:1023B000E6FFDCEC1EF0E552E552F3CFE6FB060E3D
:1023C000DB50140DF3CFE4FBF4CFE5FB170E0B014C
:1023D000E4270B0E0B01E5230B01030EE76FE20E62
:1023E000E66E0B0EE66EE66AD5EC01F0E552E552BC
:1023F000E552070EE15C02E2E16AE552E16EE55268
:10240000E7CFD9FF1200D9CFE6FFE1CFD9FF050E04
:10241000E126DF6A010EDB6A020EDB6A030EDB6A6D
:10242000040EDB6A0B01140501E0C9D0DF50EA6A33
:10243000000FE96E0B0EEA22EF501CE0DF50EA6A53
:10244000000FE96E0B0EEA22EF50E66EDF500B0133
:10245000156A1525146E1651152214C0E6FF15C015
:10246000E6FFB9EC1DF0E552E552E55206EC20F02E
:10247000DF2ADCD7E66ADF500B01156A1525146EDA
:102480001651152214C0E6FF15C0E6FFB9EC1DF089
:10249000E552E552E55206EC20F00B011551E00B38
:1024A000E83AE842E76E020EE7CFDBFF010EDB6A97
:1024B000DF50F36E010EDBCFF4FFF350F45C2CE23F
:1024C000010EDB500B01176A1525166E16511722E7
:1024D00016C0E6FF17C0E6FF6AEC1EF0E552E552B3
:1024E000E66E020EDB50140DF3CF14F0F4CF15F0AE
:1024F000170E14260B0E1522010EDB500F011424AB
:10250000E96E000E1520EA6EE552E750EF6E06EC1C
:1025100020F0010EDB2ACCD7020EDB50140DF3CFD6
:1025200014F0F4CF15F0170E14260B0E1522010E21
:10253000DB500F011424E96E000E1520EA6EEF6ADD
:10254000020EDB500B01E15D38E1E66A20EC07F09A
:10255000E5520B01E26B0B01080EE36F020EDB503C
:10256000140DF3CF14F0F4CF15F0170E14260B0E44
:10257000152214C0E6FF15C0E6FFDCEC1EF0E552A4
:10258000E552F3CFE6FB020EDB50140DF3CFE4FB74
:10259000F4CFE5FB170E0B01E4270B0E0B01E5232F
:1025A0000B01030EE76FE20EE66E0B0EE66EE66AB7
:1025B000D5EC01F0E552E552E5520B01146B0B012D
:1025C000E06BE66A9DEC1AF0E552010802E10B01AE
:1025D000E081010EE66E9DEC1AF0E552010802E181
:1025E0000B01E083020EE66E9DEC1AF0E552010845
:1025F00002E10B01E085030EE66E9DEC1AF0E55258
:10260000010802E10B01E0870B01E0510B01DF5DE6
:1026100053E00B01E05150E00B01E0510A084CE39C
:10262000E66A20EC07F0E5520B01E26B0B01080EA5
:10263000E36F0B01E005140DF3CF14F0F4CF15F0A8
:10264000170E14260B0E152214C0E6FF15C0E6FF68
:10265000DCEC1EF0E552E552F3CFE6FB0B01E005A2
:10266000140DF3CFE4FBF4CFE5FB170E0B01E427C9
:102670000B0E0B01E5230B01030EE76FE20EE66E76
:102680000B0EE66EE66AD5EC01F0E552E552E55236
:10269000E0CBDFFB0B01E0050B01E16F0B01E00577
:1026A000E66E400EE66E010EE66EB9EC1DF0E552E8
:1026B000E552E55206EC20F0050EE15C02E2E16A2B
:1026C000E552E16EE552E7CFD9FF1200D9CFE6FF20
:1026D000E1CFD9FF050EE126DF6A010EDB6A020EAB
:1026E000DB6AFD0EDBCFE9FFFE0EDBCFEAFF030E58
:1026F000EFCFDBFF040EDB6A030EDB50800A01E044
:1027000059D00B01010E146F010EE76EFD0EDBCFE9
:10271000E9FFFE0EDBCFEAFFE750E926000EEA22D2
:10272000EF500B01156F166B200E086E096A15CB62
:102730000DF016CB0EF04CEC1FF006C015FB07C0D9
:1027400016FB020EDF24E76EFD0EDBCFE9FFFE0E67
:10275000DBCFEAFFE750E926000EEA22EF501AE04D
:10276000020EDF24E76EFD0EDBCFE9FFFE0EDBCFAE
:10277000EAFFE750E926000EEA22EF50E66EDF504E
:10278000DF2AEA6A000FE96E0B0EEA22E552E750F3
:10279000EF6ED7D7DF50EA6A000FE96E0B0EEA2220
:1027A000EF6AFB0EDBCFE9FFFC0EDBCFEAFF800E0A
:1027B000EF6E01D000D0040EDB5000D0146E050E79
:1027C000E15C02E2E16AE552E16E1450E552E7CFC6
:0427D000D9FF12001B
:0C27D400D9CFE6FFE1CFD9FFFE0EDBCF2E
:1027E00001FDFD0EDBCF02FDFC0EDBCF03FDFB0E7A
:1027F000DBCF04FDF90EDBCF81FDFA0EDBCF82FDCE
:1028000004D8E552E7CFD9FF1200D9CFE6FFE1CFD8
:10281000D9FFE652E66A4B0EE66EE66AE66A94EC8B
:102820000EF0E552E552E552E5520D017D6B0D01CA
:102830007E6B0D01010E006F0D017F6B0D01050E0A
:10284000806F87CD83FD88CD84FD89CD85FD8ACDC0
:1028500086FD00CD8BFDDF6A1A0EDF5C08E2410EBB
:10286000DF24E66E5EEC0FF0E552DF2AF5D79CEC34
:102870000FF0E552E552E7CFD9FF12000D017D6B55
:102880000D017E6B0D01010E006F0D017F6B0D01BF
:10289000050E806F87CD83FD88CD84FD89CD85FDB4
:1028A0008ACD86FD00CD8BFD1200D9CFE6FFE1CFAA
:1028B000D9FF060EE126DF6A10EC18F006C087FD8E
:1028C00007C088FD08C089FD09C08AFDABA207D0FA
:1028D000AB98040EE66EFBEC1FF0E552AB88830E5E
:1028E000E96E0D0EEA6EEE500D0187190CE1EE5007
:1028F0000D01881908E1EE500D01891904E1EE502F
:102900000D018A1900E118E00D0100510D018B5DE8
:102910000BE1020E0D01005D07E10D0180070D01C5
:10292000805102E172DFD2D087CD83FD88CD84FD56
:1029300089CD85FD8ACD86FD0D010051030A01E197
:10294000BED0010A18E0030A01E0BCD0A9EC10F0E7
:10295000000901E1BBD0C6EC10F0DF6E0D010151A2
:10296000DF5C08E10D017D6B0D01020E006F0D01B2
:10297000050E806FA9D0A9EC10F0000901E1A6D0E6
:10298000C6EC10F0DF6E0D010251DF5C01E07BD080
:10299000020EDB6A030EDB68D950030FE66E000EF1
:1029A000DA20E66E9DD8E552E552E76E020EE7CFDB
:1029B000DBFF020EDB50020A57E0030A05E0010AC2
:1029C00001E05CD05BDF82D00D01815182114AE0D1
:1029D000D950040FE66E000EDA20E66E7F0EE66E2A
:1029E0000D0EE66E070EE66E0D0EE66E05D082CD7C
:1029F000FAFF0D018151F96EFADF146E060EE15EE9
:102A000014500D017E6F0D0141690D017E2B7FCDAC
:102A100042FD0D017E2BDE52020EDD6E0D017E5158
:102A2000F36E010EDBCFF4FFF350F45C1AE2040EF8
:102A3000DBCFE9FF050EDBCFEAFFEF50E66E010EBC
:102A4000DB50EA6A410FE96E0D0EEA22E552E750CB
:102A5000EF6E040EDB2A050E01E3DB2A010EDB2AF2
:102A6000DDD701D00BDF0BD00D01010E416F0D0141
:102A70007E2B7FCD42FD0D017E2B01D000D00D01BC
:102A8000030E006F1BD00D017D517D2BEA6A050FEF
:102A9000E96E0D0EEA22DFCFEFFF3C0E0D017D5DEA
:102AA0000DE30D01010E416F0D017E2B0D01900E06
:102AB000426F0D017E2B0D01030E006F05D060D813
:102AC000DDDE02D0DBDE00D000CD8BFD060EE15C4A
:102AD00002E2E16AE552E16EE552E7CFD9FF12006A
:102AE000D9CFE6FFE1CFD9FF020EE1260D017D052A
:102AF000EA6A050FE96E0D0EEA22EFCFDFFF010E45
:102B0000DB6A0D01050506E0FF0E0D01055D02E023
:102B1000000E2AD00D017D05E66E050EE66E0D0E47
:102B2000E66E9AD8E552E552E552E76E010EE7CF20
:102B3000DBFF010EDB50DF5C0DE10D017D070D01B8
:102B40007D51EA6A050FE96E0D0EEA22EF6A010E69
:102B50000BD00AD0FD0EDBCFE9FFFE0EDBCFEAFF84
:102B6000910EEF6E000E00D0146E020EE15C02E2D8
:102B7000E16AE552E16E1450E552E7CFD9FF120049
:102B8000D9CFE6FFE1CFD9FF020EE126DF6A010EC1
:102B9000DB6A7ECDE6FF410EE66E0D0EE66E5CD87A
:102BA000E552E552E552DF6E03CDE6FF5EEC0FF035
:102BB000E552010EDB6A0D017E51F36E010EDBCF93
:102BC000F4FFF350F45C0FE2010EDB50EA6A410FB0
:102BD000E96E0D0EEA22EF50E66E5EEC0FF0E55264
:102BE000010EDB2AE8D7DFCFE6FF5EEC0FF0E552FF
:102BF00004CDE6FF5EEC0FF0E552020EE15C02E26E
:102C0000E16AE552E16EE552E7CFD9FF1200D9CF74
:102C1000E6FFE1CFD9FFFD0EDBCFF6FFFE0EDBCFE7
:102C2000F7FF0800F55012E0FD0EDBCFF6FFFE0EB9
:102C3000DBCFF7FF0800F550E66E5EEC0FF0E552D3
:102C4000FD0EDB2AFE0E01E3DB2AE5D79CEC0FF03C
:102C5000E552E7CFD9FF1200D9CFE6FFE1CFD9FF88
:102C6000030EE126DF6A010EDB6AFC0EDB50F36E19
:102C7000010EDBCFF4FFF350F45C12E2010EDB50E7
:102C8000E76EFD0EDBCFE9FFFE0EDBCFEAFFE7507C
:102C9000E926000EEA22EF50DF1A010EDB2AE5D703
:102CA000DF5000D0146E030EE15C02E2E16AE552EF
:0C2CB000E16E1450E552E7CFD9FF12008E
:042CBC00DACFE4FF88
:102CC000E2CFDAFFE9CFE4FFEACFE4FFF6CFE4FF9B
:102CD000F7CFE4FFF5CFE4FFF3CFE4FFF4CFE4FF59
:102CE000FACFE4FF00EE00F0140EE80403E3EECFA9
:102CF000E4FFFBD700EE14F00A0EE80403E3EECF86
:102D0000E4FFFBD7E652F2940F010251031107E0F2
:102D100005D003CFFAFF0F010251F96EFADF00CFA1
:102D2000E6FF01CFE6FF86EC1FF0E552E552E552E3
:102D300000EE1DF00A0EE80403E3E5CFEDFFFBD73C
:102D400000EE13F0140EE80403E3E5CFEDFFFBD72C
:102D5000E5CFFAFFE5CFF4FFE5CFF3FFE5CFF5FFD1
:102D6000E5CFF7FFE5CFF6FFE5CFEAFFE5CFE9FFD7
:102D7000E5CFDAFF1100DACFE4FFE2CFDAFFE9CFE7
:102D8000E4FFEACFE4FFF6CFE4FFF7CFE4FFF5CFAF
:102D9000E4FFF3CFE4FFF4CFE4FFFACFE4FF00EE6B
:102DA00000F0140EE80403E3EECFE4FFFBD700EEDF
:102DB00014F00A0EE80403E3EECFE4FFFBD7E6527B
:102DC0009E9004CFE6FF05CFE6FF6AEC1FF0E552C8
:102DD000E5520F010651071107E005D007CFFAFFB2
:102DE0000F010651F96EFADF0F010C2B000E0D23B7
:102DF0000E230F230F01142B000E15230F01102B90
:102E0000000E11230F01122B000E13230F01162B9E
:102E1000000E17230F011807000E195B0F0119355B
:102E200004E218510008000E19550AE30F011A2B8D
:102E3000000E1B231C231D23C80E0F01186F196BD6
:102E4000E55200EE1DF00A0EE80403E3E5CFEDFFC6
:102E5000FBD700EE13F0140EE80403E3E5CFEDFF1B
:102E6000FBD7E5CFFAFFE5CFF4FFE5CFF3FFE5CFE2
:102E7000F5FFE5CFF7FFE5CFF6FFE5CFEAFFE5CFBA
:102E8000E9FFE5CFDAFF1100DACFE4FFE2CFDAFFA6
:102E9000E9CFE4FFEACFE4FFF6CFE4FFF7CFE4FFAA
:102EA000F5CFE4FFF3CFE4FFF4CFE4FFFACFE4FF84
:102EB00000EE00F0140EE80403E3EECFE4FFFBD7CE
:102EC00000EE14F00A0EE80403E3EECFE4FFFBD7B4
:102ED000E6529E9208CFBBFF0F010A510B1107E08B
:102EE00005D00BCFFAFF0F010A51F96EFADFE55258
:102EF00000EE1DF00A0EE80403E3E5CFEDFFFBD77B
:102F000000EE13F0140EE80403E3E5CFEDFFFBD76A
:102F1000E5CFFAFFE5CFF4FFE5CFF3FFE5CFF5FF0F
:102F2000E5CFF7FFE5CFF6FFE5CFEAFFE5CFE9FF15
:102F3000E5CFDAFF1100D9CFE6FFE1CFD9FF9F0E31
:102F4000E66EA2EC1FF0E552FD0EDBCF00FFFE0E99
:102F5000DBCF01FFFB0EDBCF02FFFC0EDBCF03FF5D
:102F6000FD0EDBCFE6FFFE0EDBCFE6FF86EC1FF0AB
:102F7000E552E552E552E7CFD9FF1200D9CFE6FF7F
:102F8000E1CFD9FF020EE126830EDF6EDE52080E7E
:102F9000DD6E010EDBCFE6FFDFCFE6FF98EC1EF023
:102FA000E552E552FD0EDBCFE6FFFE0EDBCFE6FF7E
:102FB0006AEC1FF0E552E5529F809D80010ECD6EB8
:102FC000FD0EDBCF04FFFE0EDBCF05FFFB0EDBCFDC
:102FD00006FFFC0EDBCF07FF020EE15C02E2E16AB6
:102FE000E552E16EE552E7CFD9FF1200D9CFE6FFF7
:102FF000E1CFD9FF0F0EBA6E9F829D82FE0EDB508D
:10300000BB6EFE0EDB500F01086F096BFC0EDBCFB1
:103010000AFFFD0EDBCF0BFFE552E7CFD9FF120011
:10302000D9CFE6FFE1CFD9FF040EE1269D901ACF5C
:10303000DFFF010E1BCFDBFF020E1CCFDBFF030EF9
:103040001DCFDBFF9D80DECF06F0DECF07F0DECFA9
:1030500008F0DDCF09F0DD52DD5200D0040EE15C56
:1030600002E2E16AE552E16EE552E7CFD9FF1200D4
:10307000F29E0F011A6B1B6B1C6B1D6BF28E120004
:1030800000000000000000002020202000002000A0
:1030900050505000000000005050F850F8505000C0
:1030A0002078A07028F02000C0C810204098180098
:1030B0006090A040A89068006020400000000000E0
:1030C00010204040402010004020101010204000F0
:1030D0000020A870A8200000002020F82020000078
:1030E00000000000301020000000007C0000000004
:1030F0000000000000606000000810204080000018
:10310000708898A8C88870002060A0202020F8004F
:10311000708808102040F800F8102010088870000F
:1031200010305090F8101000F880F0080808F000F7
:10313000304080F088887000F8081020404040003F
:10314000708888708888700070888878081060009F
:10315000006060006060000000606000602040006F
:1031600008102040201008000000F800F8000000BF
:103170004020100810204000708808102000200017
:1031800070880868A8A87000205088F8888888008F
:10319000F08888F08888F0007088808080887000CF
:1031A000E09088888890E000F88080F08080F800C7
:1031B000F88080F080808000708880B888887800EF
:1031C000888888F888888800F82020202020F80047
:1031D00038101010109060008890A0C0A090880057
:1031E000808080808080F80088D8A8A8888888009F
:1031F0008888C8A89888880070888888888870001F
:10320000F08888F08080800070888888A8906800A6
:10321000F08888F0A0908800788080700808F0001E
:10322000F820202020202000888888888888700046
:103230008888888888502000888888A8A8A8500096
:103240008888502050888800888888502020200056
:10325000F80810204080F800704040404040700066
:103260008850F820F8202000701010101010700006
:103270002050880000000000000000000000F8005E
:1032800040201000000000000000700878887800DE
:103290008080B0C88888F00000007080808870004E
:1032A000080868988888780000007088F8807000A6
:1032B000304840E04040400000788888780870003E
:1032C0008080B0C88888880020006020202070009E
:1032D0000800080808483000404048506050480046
:1032E00060202020202070000000D0A8A88888003E
:1032F0000000B0C888888800000070888888700046
:103300000000F088F08080000000689878080800CD
:103310000000B0C880808000000070807008F0005D
:103320004040E040404830000000888888986800AD
:10333000000088888850200000008888A8A85000D5
:1033400000008850205088000000888878087000AD
:103350000000F8102040F80010202040202010002D
:1033600020202020202020002010100810102000F5
:10337000002010F810200000002040F8402000003D
:10338000304848300000000030484830000000005D
:1033900008183878381808000404040404040400E9
:1033A000FFFFFFFFFFFFFF00000404000404000014
:1033B000008080008080000080808080808080008D
:1033C000C0C0C0C0C0C0C000E0E0E0E0E0E0E0009D
:1033D000F0F0F0F0F0F0F000F8F8F8F8F8F8F80095
:1033E000FCFCFCFCFCFCFC00FDFDFDFDFDFDFD000E
:1033F0002070F87070707000304884848448300009
:1034000084483030304884000070487040400000EC
:1034100000304070106000000040404040780000E4
:1034200000008005C004E003F002F8010000080479
:08343000180338027801F800CE
:08343800D9CFE6FFE1CFD9FF77
:10344000E652BDD8DF6A040EDF5C09E2DF50EA6AAB
:103450001E0FE96E0F0EEA22EF6ADF2AF4D7E5525B
:10346000E552E7CFD9FF1200D9CFE6FFE1CFD9FF70
:10347000CDD8FC0EDBCFE6FFFD0EDBCFE6FFFE0E68
:10348000DBCFE6FFDAD8E552E552E552E552E7CF69
:10349000D9FF1200D9CFE6FFE1CFD9FFE652FC0EEB
:1034A000DB50DF6EFB0EDB50D880DF541BE3AED861
:1034B000DFCFE6FFFD0EDBCF16F0FE0EDBCF17F001
:1034C000DF50030D1650F324146E1750F420156EC0
:1034D00014C0E6FF15C0E6FFB0D8E552E552E5524C
:1034E000DF2AE0D7E552E552E7CFD9FF1200D9CF66
:1034F000E6FFE1CFD9FFE652DF6A88D8DF6A040E23
:10350000DF5C16E2DFCFE6FFDF50030DF3CF14F0F0
:10351000F4CF15F0220E14260F0E152214C0E6FF6C
:1035200015C0E6FF8AD8E552E552E552DF2AE7D713
:10353000E552E552E7CFD9FF1200D9CFE6FFE1CF40
:10354000D9FFFE0EDB50030DF3CFE9FFF4CFEAFF06
:10355000220EE9260F0EEA22EF5000D0E552E7CF07
:10356000D9FF1200D9CFE6FFE1CFD9FFE652FE0E18
:10357000DB50030DF3CFE9FFF4CFEAFF220EE9267B
:103580000F0EEA22020EE926000EEA22EFCFDFFF3D
:10359000FE0EDB50030DF3CFE9FFF4CFEAFF220E5E
:1035A000E9260F0EEA22020EE926000EEA22EF6A51
:1035B000DF5000D0E552E552E7CFD9FF1200D9CF56
:1035C000E6FFE1CFD9FFE652DF6A040EDF5C19E2C5
:1035D000DF50030DF3CFE9FFF4CFEAFF220EE92617
:1035E0000F0EEA22EF6ADF50030DF3CFE9FFF4CFAD
:1035F000EAFF220EE9260F0EEA22EE52EF6ADF2AD8
:10360000E4D7E552E552E7CFD9FF12008250010B13
:103610000F011E6F8250020B01E0010E0F011F6FA0
:103620008250040B01E0010E0F01206F8250080B45
:1036300001E0010E0F01216F1200D9CFE6FFE1CFAB
:10364000D9FFFD0EDBCFE9FFFE0EDBCFEAFFEF5027
:10365000010A3BE0010A01E07CD0FC0EDB50EA6A83
:103660001E0FE96E0F0EEA22EF50010B25E1FD0E51
:10367000DBCFE9FFFE0EDBCFEAFFEE52EF2AFD0EB5
:10368000DBCFE9FFFE0EDBCFEAFFEE52EFCF14F007
:10369000020E145C10E3FD0EDBCFE9FFFE0EDBCF64
:1036A000EAFF010EEF6EFD0EDBCFE9FFFE0EDBCF72
:1036B000EAFFEE52EF6A08D0FD0EDBCFE9FFFE0E07
:1036C000DBCFEAFFEE52EF6A45D0FC0EDB50EA6A30
:1036D0001E0FE96E0F0EEA22EF50010B010830E1D8
:1036E000FD0EDBCFE9FFFE0EDBCFEAFFEE52EF2A45
:1036F000FD0EDBCFE9FFFE0EDBCFEAFFEE52EFCF90
:1037000014F0020E145C1BE3FD0EDBCFE9FFFE0E8E
:10371000DBCFEAFFEF6AFD0EDBCFE9FFFE0EDBCF6A
:10372000EAFF020EE926000EEA22010EEF6EFD0E00
:10373000DBCFE9FFFE0EDBCFEAFFEE52EF6A08D0E7
:10374000FD0EDBCFE9FFFE0EDBCFEAFFEE52EF6AA4
:0C37500001D000D0E552E7CFD9FF1200F5
:04375C00D9CFE6FFDC
:10376000E1CFD9FF080EE126DE6A240EDE6EF40EEC
:10377000DE6EDD6ADD52DD52DECF07F0DECF08F00F
:10378000DECF09F0DDCF0AF0DD52DD52075007E150
:10379000240E081804E1F40E091801E10A501FE094
:1037A000075008E1480E081805E1E80E091802E183
:1037B000010E0A1810E0075008E1900E081805E104
:1037C000D00E091802E1030E0A1801E000D0700EB5
:1037D000D36E9B8C08D0620ED36E9B8C04D0700E7F
:1037E000D36E9B9C00D0D9CFE9FFDACFEAFFEECFB2
:1037F00014F0EECF15F0EECF16F0EFCF17F0020E6B
:10380000D8901732163215321432E806F9E1040E58
:1038100014C0DBFF050E15C0DBFF060E16C0DBFF74
:10382000070E17C0DBFFD950040FE96EDACFEAFFAD
:10383000E80E0B6E030E0C6E0D6A0E6AEECF06F0EC
:10384000EECF07F0EECF08F0EFCF09F0EAEC1EF074
:1038500009C0EDFF08C0EDFF07C0EDFF06C0EFFF98
:1038600017681868196A040EDBCF1AF0050EDBCF53
:103870001BF01C6A1A50175C146E1B501858156EFA
:103880001C501958166E14C08EFD15C08FFDC26AEB
:103890000F01386B0F01396B0F013A6B0F013B6B56
:1038A0000F013C6B9498949C948E96948484956AB2
:1038B000936A816A92928092929480949296809672
:1038C00092988098929A809A9690849096928492F8
:1038D0009480948294849486080EE15C02E2E16A0A
:0C38E000E552E16EE552E7CFD9FF12007F
:0438EC00D9CFE6FF4B
:1038F000E1CFD9FF050EE126040EDB6AAEEC1BF02A
:10390000280EE66E180EE66E5F0EE66EF00EE66EA0
:103910009BEC17F0E552E552E552E552000EE66EDB
:10392000E66AC00EE66EE00EE66EBEEC17F0E552FB
:10393000E552E552E552CC0EE66E260EE66EDD0E41
:10394000E66ECC0EE66EBB0EE66EAA0EE66EEAECF6
:1039500013F0146E060EE15E14501EEC11F011EC23
:1039600000F0F40EDE6E010EDE6EDE6ADD6ADD5200
:10397000DD52D9CFE9FFDACFEAFFEE500F010C5D3F
:10398000EE500F010D59EE500F010E59EE500F0180
:103990000F5907E3E1EC1FF00F010C6B0D6B0E6B81
:1039A0000F6B0F01190E165D000E175905E341EC60
:1039B00008F00F01166B176B0F010A0E105D000E59
:1039C000115907E377EC1AF00F01106B116B040E1D
:1039D000DB2A0A0EF36E040EDBCFF4FFF350F45C27
:1039E00004E303EC12F0040EDB6A55EC14F0C1D7CB
:1039F000050EE15C02E2E16AE552E16EE552E7CFD5
:043A0000D9FF1200D8
:0C3A0400DACFE4FFE2CFDAFFE9CFE4FF05
:103A1000EACFE4FFF6CFE4FFF7CFE4FFF5CFE4FF12
:103A2000F3CFE4FFF4CFE4FFFACFE4FF00EE00F0C1
:103A3000140EE80403E3EECFE4FFFBD700EE14F02E
:103A40000A0EE80403E3EECFE4FFFBD7E652D9CF3A
:103A5000E6FFE1CFD9FFE6522DEC1FF0DF6E0E013D
:103A60003F513F2BEA6A420FE96E0E0EEA22DFCF8A
:103A7000EFFF3C0E0E013F5D02E30E013F6B0E01B6
:103A8000412B9E9AE552E552E7CFD9FFE55200EE71
:103A90001DF00A0EE80403E3E5CFEDFFFBD700EECF
:103AA00013F0140EE80403E3E5CFEDFFFBD7E5CFF9
:103AB000FAFFE5CFF4FFE5CFF3FFE5CFF5FFE5CF64
:103AC000F7FFE5CFF6FFE5CFEAFFE5CFE9FFE5CF6A
:043AD000DAFF110008
:0C3AD400280EF66E000EF76E000EF86E65
:103AE0000F010900F550336F0900F550346F03E101
:103AF000336701D03DD00900F5502E6F0900F55015
:103B00002F6F0900F550306F09000900F550E96E7C
:103B10000900F550EA6E090009000900F550316FFF
:103B20000900F550326F09000900F6CF35FFF7CFD5
:103B300036FFF8CF37FF2ECFF6FF2FCFF7FF30CF6E
:103B4000F8FF0F01315302E1325307E00900F5504D
:103B5000EE6E3107F8E23207F9D735CFF6FF36CFF0
:103B6000F7FF37CFF8FF0F013307000E345BBFD7E5
:023B7000120041
:0E3B7200D9CFE6FFDACFE6FFE1CFD9FFE2CFF1
:103B8000DAFFE652DF6AFD0EDBCF15F015C014F048
:103B9000030E1514AA6EFF0EE76EFC0EDBCF14F0B9
:103BA000E7501416156A1450A96EFB0EDB50A86E70
:103BB000A69EA69CA684F250800B01E0010EDF6E4B
:103BC000F29E550EA76EAA0EA76EA682A6B2FED7CB
:103BD000DF50E8B0F28EE8A0F29EA694E552E552DE
:0A3BE000E5CFDAFFE7CFD9FF1200AE
:063BEA00D9CFE6FFDACF9F
:103BF000E6FFE1CFD9FFE2CFDAFF726A716AFD0E0C
:103C0000DBB07288DBA202D0728C718CDBB4728E56
:103C1000DBA602D0718801D0718ADBA802D0728441
:103C200001D07294DBBA7186DBAC02D0A38A01D0DA
:103C3000A39ADBAE02D0A38801D0A398FB0EDB5081
:103C4000756EFC0EDBCF15F015C014F0156A14501C
:103C5000766E728A718EE552E5CFDAFFE7CFD9FF33
:023C6000120050
:0E3C6200D9CFE6FFDACFE6FFE1CFD9FFE2CF00
:103C7000DAFFAC6AAB6AFD0EDBB0AC88DBA202D027
:103C8000AC8CAB8CDBB4AC8EDBA602D0AB8801D0A5
:103C9000AB8ADBB8AC84DBBAAB86DBAC02D09D8AE6
:103CA00001D09D9ADBAE02D09D8801D09D98FB0E7D
:103CB000DB50AF6EFC0EDBCF15F015C014F0156AAB
:103CC0001450B06EAC8AAB8EE552E5CFDAFFE7CF89
:043CD000D9FF120006
:0C3CD400D9CFE6FFDACFE6FFE1CFD9FF41
:103CE000E2CFDAFFFC0EDBCF14F0FD0EDBCF15F0D8
:103CF00015C014F0156A030E1414AA6EFF0EE76EB9
:103D0000FC0EDBCF14F0FD0EDBCF15F0E7501416E0
:103D1000156A1450A96EA69CA69EA68000000000FD
:103D2000A85000D0E552E5CFDAFFE7CFD9FF120067
:103D3000D9CFE6FFDACFE6FFE1CFD9FFE2CFDAFF56
:103D4000FC0EDB50F30BCC6EFD0EDB507F0BE8243A
:103D5000CD6ECF6ACE6A9E90FD0EDBAE02D09D8006
:103D600001D09D90A490FC0EDBA402D0A38001D0D2
:103D7000A390CCBECC86CD80E552E5CFDAFFE7CF6D
:043D8000D9FF120055
:0C3D8400FE0EE3CFE9FFFF0EE3CFEAFFE5
:103D9000E9CFF3FFEACFF4FFFB0EE35003E1FC0EA3
:103DA000E35009E0FB0EE30602E2FC0EE306FD0E23
:103DB000E350EE6EF1D71200FE0EE3CFE9FFFF0EE7
:103DC000E3CFEAFFF36AF46AEE5203E0F34AF42A1F
:043DD000FBD712000B
:0C3DD400056A046A036A026A200EE76EAA
:103DE000D8900636073608360936023603360436CA
:103DF00005360B50025C0C5003580D5004580E5001
:103E0000055809E30B50025E0C50035A0D50045A3A
:0C3E10000E50055A062AE72EE4D71200D7
:043E1C00D9CFE6FF15
:103E2000DACFE6FFE1CFD9FFE2CFDAFFE652F20EBA
:103E30000D01901771AC03D0909171B0908171B465
:103E4000908571B290877450DF6EDF50E552E55275
:0A3E5000E5CFDAFFE7CFD9FF12003B
:063E5A00D9CFE6FFDACF2C
:103E6000E6FFE1CFD9FFE2CFDAFFE652F20E0D0115
:103E70009117ABAC03D09191ABB09181ABB491856C
:103E8000ABB29187AE50DF6EDF50E552E552E5CF21
:083E9000DAFFE7CFD9FF1200B1
:083E980008C012F008500D02F1
:103EA000F4CF07F0F3CF06F009500E02F4CF09F07B
:103EB000F3CF08F00D02F3500726F4500822E86A09
:103EC000092212500E02F3500726F4500822E86A25
:043ED0000922000CB7
:0C3ED400D9CFE6FFDACFE6FFE1CFD9FF3F
:103EE000E2CFDAFFE652E652FC0EDBCFDEFFDBCF9D
:103EF000DDFF010EDB50CF6EDF50CE6EE552E55296
:0C3F0000E552E5CFDAFFE7CFD9FF120051
:043F0C00D9CFE6FF24
:103F1000DACFE6FFE1CFD9FFE2CFDAFFE652E65291
:103F2000FC0EDBCFDEFFDBCFDDFF010EDB50D76EFB
:103F3000DF50D66EE552E552E552E5CFDAFFE7CF26
:043F4000D9FF120093
:0C3F4400D9CFE6FFDACFE6FFE1CFD9FFCE
:103F5000E2CFDAFFFD0EDB507F0BD56ED76AD66A53
:103F6000F294FD0EDBAE02D0F28A01D0F29AD58E29
:0C3F7000E552E5CFDAFFE7CFD9FF1200E1
:043F7C00FF0EE35001
:103F80001E6E480E01D04C0EE76EE72EFED7E76A94
:0C3F9000E72EFED71E2EF7D7000012000F
:043F9C00380EF36E7A
:103FA00000EE00F00F0E01D81200EA6002D0EE6AB7
:0C3FB000FCD7F350E9601200EE6AFCD769
:043FBC000D01936BF5
:103FC00012000D01930504E10D01936B829804D05A
:0A3FD0000D01010E936F82881200AC
:063FDA0010EE60F020EE85
:103FE00060F0F86A019C6AEC1DF003EC00F076ECDE
:063FF0001CF0FBD71200DB
:0A3FF600FF0EE350E84E1200000039
:0C40000000D000D000D0E82EFAD712004B
:04400C00A6B2FED783
:0240100012009C
:0E4012000000000000000000000000000000A0
:104020000000000000000000000000000000000090
:104030000000000000000000000000000000000080
:104040000000000000000000000000000000000070
:104050000000000000000000000000000000000060
:104060000000000000000000000000000000000050
:104070000000000000000000000000000000000040
:104080000000000000000000000000000000000030
:104090000000000000000000000000000000000020
:1040A0000000000000000000000000000000000010
:1040B0000000000000000000000000000000000000
:0840C0000000000000000000F8
:0840C8000000000000000000F0
:1040D00000000000000000000000000000000000E0
:1040E00000000000000000000000000000000000D0
:1040F00000000000000000000000000000000000C0
:1041000000000000000000000000000000000000AF
:10411000000000000000000000000000000000009F
:10412000000000000000000000000000000000008F
:10413000000000000000000000000000000000007F
:0641400000000000000079
:0A414600000000000000000000006F
:0641500000000000000069
:0A415600000000000000000000005F
:10416000000000000000000000000000000000004F
:10417000000000000000000000000000000000003F
:10418000000000000000000000000000000000002F
:10419000000000000000000000000000000000001F
:1041A000000000000000000000000000000000000F
:1041B00000000000000000000000000000000000FF
:1041C00000000000000000000000000000000000EF
:1041D00000000000000000000000000000000000DF
:0241E0000000DD
:0E41E2000000000000000000000000000000CF
:1041F00000000000000000000000000000000000BF
:1042000000000000000000000000000000000000AE
:10421000000000000000000000000000000000009E
:10422000000000000000000000000000000000008E
:10423000000000000000000000000000000000007E
:10424000000000000000000000000000000000006E
:10425000000000000000000000000000000000005E
:10426000000000000000000000000000000000004E
:10427000000000000000000000000000000000003E
:10428000000000000000000000000000000000002E
:10429000000000000000000000000000000000001E
:1042A000000000000000000000000000000000000E
:1042B00000000000000000000000000000000000FE
:0A42C00000000000000000000000F4
:0642CA00000000000000EE
:1042D00000000000000000000000000000000000DE
:0842E0000000C800000000000E
:0142E80000D5
:0242E900FFFFD5
:0242EB000000D1
:020000040030CA
:0100010018E6
:0100020001FC
:0100030024D8
:01000500BD3D
:010006008079
:010008000FE8
:01000900C036
:01000A000FE6
:01000B00E014
:01000C000FE4
:01000D0040B2
:00000001FF
